:100D8300333238080F06005A61707261737A616DED
:100D930079210A0050726F737A6520637A656B61FB
:100DA30063210A005A616D6B6E69657465005A614F
:100DB3002064757A6F206F736F62210A00447A6929
:100DC300656B756A656D79210A00534F5321204184
:100DD3002100534F532120422100534F53212041DF
:060DE300206920422100FE
:040E17007F017E00D9
:100E1B00E4FDFCC3ED9FEC9E5015E4FBFA0BBB000D
:0F0E2B00010AEB64904A70F50DBD00010C80E4E4
:010E3A002295
:100E3B00A90790FF82E030E705120E1780F490FFB0
:040E4B0080E9F02228
:100E4F00A90790FF82E030E705120E1780F490FF9C
:040E5F0081E9F02213
:0C0E63007F01120E3B7F0A7E00020E1B76
:100DE900E4F576C3E5769406748094805011E5762F
:100DF900900D8393FF120E3B120E17057680E412B5
:0E0E09000E637F80120E3B7F017E00020E1BE7
:100C7600D295AE72AF737C007D0A120BEB8D70C3FA
:100C8600E5739570FFE5729400FE7C007D0A120BF9
:080C9600EB8F71E5712430FFC2
:020C9E008F764F
:100CA000E57624F3603F24036003020D4690FF8243
:100CB000E0F577D3E577940F7480948050057FC07A
:100CC000120E3BAF777E00C3EF9441748094805046
:100CD00003020D63D3EF9450748094804003020D9F
:100CE000637F80805C90FF82E0F577AF777E00D3F2
:100CF000EF940F7480948050047D0180027D00C3C6
:100D0000EE6480948040047F0180027F00EF5D608C
:100D1000057F80120E3BAF777E00D3EF9450748036
:100D2000948050047D0180027D00C3EF9441EE6405
:100D300080948040047F0180027F00EF5D60247F0B
:100D4000C0120E3B801DAF767E00D3EF941F7480DF
:100D50009480400CEF9480748094805003120E4F66
:100D6000120E17120E1790FF82E0F577E5776410E8
:100D700070057FC0120E3BE577645070057F8012CE
:020D80000E3B28
:010D8200224E
:1008000078097C007D007BFF7A0D79897E007F016D
:10081000120BC5780A7C007D007BFF7A0D798A7EF9
:10082000007F0D120BC578177C007D007BFF7A0DD1
:1008300079977E007F10120BC578277C007D007BA6
:10084000FF7A0D79A77E007F0A120BC578317C00F4
:100850007D007BFF7A0D79B17E007F0F120BC5788A
:10086000407C007D007BFF7A0D79C07E007F0D12F9
:100870000BC5784D7C007D007BFF7A0D79CD7E0025
:100880007F08120BC578557C007D007BFF7A0D79BF
:10089000D57E007F08120BC5785D7C007D007BFF54
:1008A0007A0D79DD7E007F0C120BC5E4F572F573CD
:1008B000F57475750A120DE990F021E0F4FFA3E0DC
:1008C000F4FEEF5401F569EF5404F56AEF5420F596
:1008D0006BEE5404F56CEE5408F56DEE5410F56EA5
:1008E000EE5420F56FE5696401700302099AE4F59E
:1008F0000874272508F8E6FF600E120C9E7FFA7E2A
:1009000000120E1B050880E9120E63E56C6404708A
:1009100040120E63C295E4F508744D2508F8E6FF11
:100920006007120C9E050880F0E56D6408701612D1
:100930000E63E4F508745D2508F8E6FF6007120C05
:100940009E050880F07F987E3A120E1BD295120EFB
:1009500063E56D640860030208B8120E63C295E493
:10096000F50874552508F8E6FF6007120C9E050887
:1009700080F0E56C64047016120E63E4F508745D93
:100980002508F8E6FF6007120C9E050880F07F98A6
:100990007E3A120E1BD295020AEFE56964016003EC
:1009A0000208B8E56B6420601AE4F508740A2508AB
:1009B000F8E6FF600E120C9E7FFA7E00120E1B05F9
:1009C0000880E9120E63E56B642060030208B8C377
:1009D000E5739575E5746480F8E572648098502835
:1009E0000573E57370020572E4F508740A2508F8CA
:1009F000E6FF6007120C9E050880F0D297120C7675
:100A0000E5702430FF120C9EE57365757004E57285
:100A10006574702A120E63E4F50874172508F8E669
:100A2000FF6007120C9E050880F0C297120C76E555
:100A3000702430FF120C9E7FE87E03120E1BE56EC1
:100A400064107045C3E5739575E5746480F8E572CC
:100A50006480984034120E630573E573700205726A
:100A6000E4F50874312508F8E6FF6007120C9E05CE
:100A70000880F0C297C295120C78E5702430FF12FE
:100A80000C9E7FD07E07120E1BE57365757004E522
:100A90007265747034E56E6410602E7F107E2712CC
:100AA0000E1B120E63E4F572F573D297F5087440CD
:100AB0002508F8E6FF6007120C9E050880F0120C6E
:100AC00078E5702430FF120C9EE56E64106019D337
:100AD000E5739575E5746480F8E572648098400864
:100AE000857472857573D2957FDC7E05120E1B129C
:050AF0000E630208B8CE
:03000000020E6F7E
:0C0E6F00787FE4F6D8FD7581770208005A
:100AF500E709F608DFFA8046E709F208DFFA803EE3
:100B050088828C83E709F0A3DFFA8032E309F608CF
:100B1500DFFA8078E309F208DFFA807088828C8337
:100B2500E309F0A3DFFA806489828A83E0A3F608EB
:100B3500DFFA805889828A83E0A3F208DFFA804CC5
:100B450080D280FA80C680D4806980F2803380109C
:100B550080A680EA809A80A880DA80E280CA803305
:100B650089828A83ECFAE493A3C8C582C8CCC5837D
:100B7500CCF0A3C8C582C8CCC583CCDFE9DEE7804D
:100B85000D89828A83E493A3F608DFF9ECFAA9F0CC
:100B9500EDFB2289828A83ECFAE0A3C8C582C8CC22
:100BA500C583CCF0A3C8C582C8CCC583CCDFEADE3B
:100BB500E880DB89828A83E493A3F208DFF980CC9D
:100BC50088F0EF60010E4E60C388F0ED2402B40496
:100BD5000050B9F582EB2402B4040050AF2323453D
:060BE5008223900B457312
:100BEB00C2D5EC30E709B2D5E4C39DFDE49CFCEE25
:100BFB0030E715B2D5E4C39FFFE49EFE120C21C370
:100C0B00E49DFDE49CFC8003120C2130D507C3E46A
:060C1B009FFFE49EFE2293
:100C2100BC000BBE0029EF8DF084FFADF022E4CCB7
:100C3100F875F008EF2FFFEE33FEEC33FCEE9DEC80
:100C4100984005FCEE9DFE0FD5F0E9E4CEFD22EDC6
:100C5100F8F5F0EE8420D21CFEADF075F008EF2F10
:100C6100FFED33FD4007985006D5F0F222C398FD01
:050C71000FD5F0EA229E
:00000001FF
